:020000040000FA
:1000000008092020D5000000D9000000DB00000016
:1000100000000000000000000000000000000000E0
:10002000000000000000000000000000DD000000F3
:100030000000000000000000DF000000FD420000A2
:10004000E300000025220000E3000000E3000000C0
:10005000310C0000E3000000E3000000E3000000BA
:1000600000000000E3000000E300000000000000CA
:100070000000000045530000E30000002D53000085
:100080000D430000E3000000E3000000E300000077
:10009000E30000004D4300000000000000000000ED
:1000A000E3000000E300000000000000000000008A
:1000B000E300000000000000E3000000E300000097
:1000C0000348854600F060FD00480047DD760000EB
:1000D0000809202003480047FEE7FEE7FEE7FEE7A9
:1000E000FEE7FEE7C1000000F8B500242546002920
:1000F00004DA0E46012400214042B141002B04DA0B
:100100001E46002352420125B34100F0EFFB8C460E
:1001100017461E46AC4203D0002540428D41AC46F6
:10012000002C02D0002657429E4161463A46334693
:1001300001B0F0BD30B5434351435C18010C130CC2
:100140000D465D432C1980B292B20546554351438A
:100150000A0C09044D1962415843010C000440196E
:10016000514130BD002800DA4042704730B50446A6
:100170000020034600E05B1C934203D2E05CCD5CB0
:10018000401BF8D030BDF8B502464A40D40F4200BB
:100190004B0052085B089A4202D2024608461146BA
:1001A0004A0023D0C30D4A00DDB2120EAD1A202D35
:1001B00035DA49020126490AF6058A19002C00D0D1
:1001C000524220214F1B1146B9402A411018C20D3E
:1001D0009A4221D0002C17D0012D08DCDA05801AB4
:1001E000D20F8019D207DBB200F0ECFBF8BDDA05C4
:1001F000801A012340001B06C01880185A4280183C
:10020000CA0F1043490007E04908C2071143DA0545
:10021000801A80194008801800F0CCFBF8BD6100FE
:100220000122511A001BF7E70122D2075140AAE729
:100230000122D2075040A6E7024670B54A40D30FCC
:10024000DB0740002DD04A002AD0010E140E000218
:1002500012020919400A520A8418E501044654435F
:10026000000A120A2E045043A4194219200CC54357
:10027000AA18120C0125AD03521C521912047F3921
:10028000240400D0521C104301D44000491EC2B2C5
:100290000C06C0092018401C4008802A02D003E048
:1002A000002070BD40084000002900DA00201843FB
:1002B00070BD70B502464A40D50F40004A00ED07B8
:1002C00040085208002814D0002A12D0C40DD30DC3
:1002D00041020120C0055202490A520AE41A0918D3
:1002E00012187D34914201D3641C00E04900002CB7
:1002F00001DA002070BD0023914201D3891A034323
:10030000400849000028F7D100290AD0914202D1C3
:100310000121C90705E0914201D2012101E001213B
:10032000C943E005C018401900F044FB70BD00004F
:10033000F0B507460846584087B0C00F0490480003
:100340000E46590040084908BC1A884105D2384673
:1003500031461E4617460B460246580040081043D9
:100360004CD0300D039040055900400D490D0590CB
:10037000401A0290402872DA18030121000B090587
:100380000843019004980092002805D00199524238
:100390000020884100920190029840210A1A019998
:1003A000009800F0D3FA05460C466B4607CB00F0E8
:1003B000EEFAC0197141039A0E0D0023D71756406B
:1003C0001A467A40164344D0049A002A2DD0029A45
:1003D000012A039A15DC1205C01A9141012636053F
:1003E000001C7141D20F059ED20700930192029624
:1003F0002A46234600F02CFB07B0F0BD38463146B4
:10040000FAE71605224A0F46B218C01AB741012171
:100410000905001C4F4100187F4111461818794109
:10042000E20F10436D19644113E0E2076D081543B4
:100430006408C2071443039A01261205C01A9141A9
:100440003605001C7141CE07400830434908C018EA
:1004500051412A46234600F0EEFACDE7FFE7049823
:1004600001224000C117121A00238B410498314623
:10047000C417381AA141EEE730B40124E407634001
:1004800030BC55E730B40124E407614030BC4FE78D
:100490000000E0FFF0B51FB488B00B990998002464
:1004A00048400999C00F490049080991C0070B99B4
:1004B0000090490049080B9109990898A6460843FD
:1004C0001CD00B990A98084318D0099801244000C1
:1004D000420D4800410D099824050003000B2043FC
:1004E00009900B980003000B20430B9050181C49F7
:1004F0004018002201901446104605E000200146F5
:100500000DB0F0BD032801DA034600E003239C464A
:10051000C11A0AAE0AE05F0008ADED5B4F00F75B61
:100520007D430027AA187C41491C5B1E6145F2DD12
:10053000410004AB5A522104120C0A43240C401C03
:100540000828DFDB01980290009970460191009025
:10055000059B049A0799069800F07AFAD0E7000004
:100560000DFCFFFFF0B50C465C4085B0E40FE407DE
:1005700003944C000026640859009446490802463A
:100580000296224321D062460A431ED06200570DD4
:100590004A000E032303550D012402462C4924056D
:1005A000781B1B0B360B40182343264361460090F3
:1005B0001C46501AB44103D30098401C009002E03E
:1005C000921800985B41002803DA0020014605B02C
:1005D000F0BD0020012109050746864611E064466A
:1005E0001D46141BB54106D36546521BB3417446E4
:1005F00007430C43A646CD074008490828439218F4
:100600005B4105460D43EAD11046184313D06046BE
:10061000194650407140084306D06046101AB34155
:1006200006D20122002306E000220123DB0702E0BC
:100630000122D2435310009874460105381C6141D1
:10064000029C039D0019694100F0F5F9BFE7000025
:10065000FD0300000122D207002800DB101A002948
:1006600000DB511A814201D80120704700207047F9
:100670000122D207002800DB101A002900DB511AE2
:10068000814201D201207047002070470122D20729
:10069000002800DB101A002900DB511A814201D327
:1006A00001207047002070470122D207002800DB9C
:1006B000101A002900DB511A814201D9012070472C
:1006C000002070470122D207002800DB101A002901
:1006D00000DB511A814201D1012070470020704790
:1006E00010B5002904DB0C460121C9074042A14195
:1006F000002B04DB1C460123DB075242A341101AE6
:100700008B4101D3012010BD002010BDC217C10FC5
:10071000504010B54018CA079623002100F052F946
:1007200010BD10B500229623114600F04BF910BD04
:100730000EB5C217C10F5040CA0740180021054B23
:100740000293019200910A460B4600F081F903B032
:1007500000BD000033040000C20F4100400201232D
:10076000400ADB05D207090EC0187F2901DA0020F4
:100770007047962903DC9623591AC84001E0963940
:100780008840002AF4D040427047410040020122D4
:10079000400AD205090E80187F2901DA002070472F
:1007A000962903DC9622511AC84070479639884032
:1007B0007047000070B5CD0F4A0009030123090BF3
:1007C0001B0519430B4BED070024520D9A4201DA29
:1007D000002070BD074B34339A4203DC9A1A00F0B4
:1007E000C5F802E00449511888402C43F1D040423A
:1007F00070BD0000FF030000CDFBFFFFC20FD2075A
:10080000400040080BD0C10D0723DB01C91840028E
:100810000905400A1143C2084007114370470020F0
:1008200001467047CB0FDB07490010B54908024667
:100830000A4307D00A0D07240903E401090B121B20
:10084000002A01DC002010BDC900440F0C43C10088
:10085000E018D205801800F0ADF810BD70B5044660
:10086000002903D000202022012310E0002801D01D
:100870000020C043C046C0460DE02546D5408D420D
:1008800005D30D469540641B1D46954040191546FD
:10089000521E002DF1DC214670BD000070B5002510
:1008A00004462E46002911D0002C01DA01254442CD
:1008B000002901DA012649422046FFF7CFFFB54261
:1008C00000D04042002D00D0494270BD002C02DA19
:1008D0000121C90702E0002C00DD03490846C0469B
:1008E000C046214670BD0000FFFFFF7FF0B51FB47A
:1008F0000646002082B005464024019100901BE08E
:10090000019922460F46304600F030F8049A059BC4
:10091000801A994110D310461946224600F016F865
:10092000361A8F410197224601200021009F00F0D6
:100930000DF838184D4100902046641E0028DFDC79
:10094000019B00982946324607B0F0BD10B5202A19
:1009500004DB0146203A9140002010BD9140202345
:100960009C1A0346E3401943904010BD10B5202A5D
:1009700004DB0846203AD040002110BD0B46D3408E
:10098000D0402024A21A91400843194610BD10B54A
:10099000202A06DBCB170846203A1041C1170B432B
:1009A00006E00B461341D0402024A21A9140084390
:1009B000194610BD002904DA401C490001D1400845
:1009C0004000704770B40024050C05D110240004C9
:1009D00002D1002921D01124050E01D100020834D2
:1009E000050F01D10001241D850F01D18000A41C39
:1009F000002801DB4000641C002908D020252E1BA4
:100A00000D46F540A14000D00121294308430106CD
:100A10001B1B000ADB1D02D5002070BC7047DB05E4
:100A2000181880180029F8DA401C4900F5D170BC6C
:100A300040084000704710B5002B08DA0024401C25
:100A4000614192185B411A4301D14008400010BD3A
:100A5000F0B51FB482B005460C0003D0084608F07C
:100A6000F1FC02E008F0EEFC203002460090214646
:100A70002846FFF76BFF049B059A04460F46184370
:100A80001143084314D0184610431BD0009840214E
:100A90000A1A18460599FFF769FF05460E46009A9F
:100AA00005990498FFF752FF084305D0012004E0A0
:100AB0002046394607B0F0BD0020C11705430E435C
:100AC0002C43374300990E986305401A7905E40AD0
:100AD00000220C43FD0A0A3002D500200146E9E756
:100AE0000105101969410C9C0D9D00196941FFF722
:100AF000A2FFDFE74A0009030123090B1B05194385
:100B00000A4B10B5520D9A4202DA0020014610BD80
:100B1000064B34339A4203DC9A1AFFF727FF10BDC5
:100B2000034BD218FFF712FF10BD0000FF030000B7
:100B3000CDFBFFFF10B5002904DB0124E407404290
:100B40008C412146002B04DB1C460123DB0752426B
:100B5000A3418B4200D1824210BD000010B5002994
:100B600004DB0124E40740428C412146002B04DBD6
:100B70001C460123DB075242A341994200D1904217
:100B800010BD000000000000064C0125064E05E0E7
:100B9000E36807CC2B430C3C98471034B442F7D39E
:100BA000FFF792FA28B9000048B9000070B54B0071
:100BB0005B0803430BD04B005C0D002633466542B7
:100BC000B341D417AD1AA34102DB0020014670BD2A
:100BD00012053018514170BD70B58C180578401C55
:100BE0006B075B0F01D10378401C2A1106D10278F4
:100BF000401C03E006780E70401C491C5B1EF9D1B6
:100C00002B0705D40023521E0DD40B70491CFAE7A4
:100C10000378401CCB1A921C03E01D780D70491C10
:100C20005B1C521EF9D5A142D8D3002070BD000034
:100C300080B50120800700F0B3F9092804D1FFE74F
:100C400002480121017000E0FFE780BD9C022020E6
:100C500083B0029001910092019800994018029986
:100C6000A822885001980099401A0299AC22885015
:100C700003B07047F0B59FB01E9089480188491CA9
:100C800001800088012801DCFFE706E1844800219B
:100C900001801E98024688328823C05850601E98F2
:100CA000024698329824005950601E98806F1D911A
:100CB0001C931B94FFF73CFD7A4A7B4B1A921993C5
:100CC000FFF7E8FBFFF776FD1E991C9A88501E98E7
:100CD000C06FFFF72DFD1A9A199BFFF7DBFBFFF79B
:100CE00069FD1E991B9A88501E98806F1E9980235B
:100CF000CC582018C8501E98C06F1E998423CC5819
:100D00002018C8501E981D9981671E98C1671E98AB
:100D1000034688331C9C05595B68EB1A18901846EB
:100D20001795FFF7F3FC61491691FFF785FA1799BC
:100D300015900846FFF7EAFC1599FFF775FAFFF7DB
:100D40000BFD18991C9A88501E98034698331B9CDB
:100D500005595B68EB1A149018461395FFF7D6FCFB
:100D60001699FFF769FA139912900846FFF7CEFC1F
:100D70001299FFF759FAFFF7EFFC14991B9A885064
:100D80001E989023C458942544511E98A0240659B7
:100D9000A427C6511E981C9E815911900846109395
:100DA0000F950E940D97FFF7B1FCA821119A515899
:100DB0000C900846FFF7AAFC0121119A0B901046EF
:100DC0000C9B0A9119460B9A0A9B02F0E9FCFFF76B
:100DD000C3FC1E99109A88501E9801463C311B9BFB
:100DE000C458099020460891FFF790FCAC21099A5D
:100DF000515807900846FFF789FC08990690084665
:100E00000799069A0A9B02F0CBFCFFF7A5FC1E99F6
:100E10000E9A88501E98109943580F9C05595D1BD7
:100E2000059028460493FFF771FC1699FFF704FA22
:100E3000049903900846FFF769FC0399FFF7F4F95A
:100E4000FFF78AFC0599109A88501E980E9BC4588B
:100E50000D9D4659A61B029030460194FFF756FCA3
:100E60001699FFF7E9F9019900900846FFF74EFC43
:100E70000099FFF7D9F9FFF76FFC02990E9A885095
:100E80001E98109BC1581D9808F0AAF81E980E993C
:100E900041580A9808F0A4F8FFE71FB0F0BDC0461B
:100EA00080012020FB3A70CE88D2E23FCDCC4C3D71
:100EB00082B00190009100980199C54A8B58034374
:100EC0008B5002B07047C046F0B589B0129C119D9E
:100ED000109E0F9F04900E98039102900498089022
:100EE00007A8019003980091019908700692059354
:100EF000069A059B1A430E9B1A430F9B1A43109B9D
:100F00001A43119B1A43129B1A43089B08788000CE
:100F100018182323DB01C25009B0F0BD81B0009046
:100F2000009811210902425801231A43425001B08E
:100F3000704781B0009000981121090242580123A6
:100F40001A43425001B0704782B00190009100985E
:100F50000199C44A8B5803438B5002B07047C04676
:100F600081B0009000980121C902CF4A425001B0DF
:100F70007047C04683B00A46029001A801700299EA
:100F80000078800008182521C901401800900098B9
:100F90000249405880B203B07047C0460050550027
:100FA00081B000900098812149014058C0B201B041
:100FB0007047000081B0009000980249024A4250F8
:100FC00001B0704704080000030000B180B582B092
:100FD0000190009101980D49401800990978A922C3
:100FE000120689180A4A00F063F8019811210902D3
:100FF0004018009949680722120600F059F8009835
:1010000040780199034A885002B080BD080800006A
:10101000030000FF1011000080B582B00190009124
:10102000019811210902401800990122120400F0D0
:10103000A3F802B080BD000082B00A460190684665
:10104000018000880199024BC85002B07047C04629
:101050001411000081B00090009804494258012307
:101060001B021A43425001B07047C04604110000F1
:1010700083B002900191009202980199084300996F
:1010800008430549086003B07047C046024800683D
:10109000072108407047C0460013404082B00190CD
:1010A0000198811E091F00BFFCD2009102B0704759
:1010B00084B0039002910192039800680090009818
:1010C00001998843009000980299019A11400843C1
:1010D0000399086004B0704784B0039002910192B4
:1010E0000398006800900098019988430090009848
:1010F0000299019A114008430399086004B07047AF
:1011000084B00390029101920398006800900098C7
:1011100001998843009000980299019A1140084370
:101120000399086004B0704784B003900291019263
:1011300003980068009000980199884300900098F7
:101140000299019A114008430399086004B070475E
:1011500084B0039002910192039800680090009877
:1011600001998843009000980299019A1140084320
:101170000399086004B0704784B003900291019213
:1011800003980068009000980199884300900098A7
:101190000299019A114008430399086004B070470E
:1011A00082B00190009100980199094A8B5803433D
:1011B0008B5002B07047C04682B0019000910098F9
:1011C0000199034A8B5803438B5002B07047C046C5
:1011D0004810000082B0019000910098019995227A
:1011E0005201885002B0704782B00190009100987F
:1011F000019995225201885002B0704782B0019047
:1012000000910098019995225201885002B07047D0
:1012100082B0019000910098019995225201885066
:1012200002B0704782B00190009100980199952218
:101230005201885002B0704782B00190009100982E
:10124000019995225201885002B0704782B00190F6
:10125000009100980199034A8B5803438B5002B0C8
:101260007047C0462810000082B00190009100989D
:101270000199074A885002B07047C04682B0019079
:10128000009100980199024A885002B07047C04608
:10129000D012000081B0009000980121C902984A44
:1012A000425001B07047C0460100002682B0019054
:1012B00000910198024940580099084002B07047D7
:1012C0003810000081B00090009880003549124A23
:1012D000425001B07047C04681B000900098800035
:1012E00030490D4A425001B07047C04610B584B035
:1012F000069C039002910192009302980199084381
:101300000099084306990843034908430399890053
:10131000244A885004B010BD8100040081B00090C0
:10132000009880001F498122425001B07047C0469A
:1013300081B00090009880001A498122425001B08B
:101340007047C04610B584B0069C0390029101928C
:1013500000930298019908430099084306990843AD
:1013600081210843039989000E4A885004B010BDBA
:1013700082B00190009100980349084301998900C7
:10138000084A885002B070478000040082B0019083
:10139000009100988021084301998900014A8850F2
:1013A00002B070470480424082B0019000910198E1
:1013B0002721C90140580099084002B0704782B007
:1013C0000190009101982721C901405800990840D7
:1013D00002B0704782B00190009101982721C901A5
:1013E00040580099084002B0704782B001900091C7
:1013F00001982721C90140580099084002B0704760
:1014000081B0009000985849584A425001B0704746
:1014100082B001900091009801991B4A885002B057
:101420007047C04682B00190009100980199164A19
:10143000885002B07047C04682B001900091009879
:101440000199114A885002B07047C04682B001909D
:101450000091009801990C4A885002B07047C0462C
:1014600082B00190009100980199074A885002B01B
:101470007047C04682B00190009100980199024ADD
:10148000885002B07047C0469012000082B00190B0
:101490000091009801999D2252018B5803438B5073
:1014A00002B0704782B00190009100980199024A01
:1014B000885002B07047C046B012000081B00146AB
:1014C0006A4610701078302242430248105801B02A
:1014D0007047C0460011404081B0009000981D49FF
:1014E000425801231A43425001B0704781B0009026
:1014F00000980121C902024A425001B07047C0461B
:101500000100002680B584B0039002910398112158
:101510000902401802990A894B881A4389790A43BB
:101520000B4901911146019AFFF7D6FD039809492D
:10153000401802998A88CB791A4309780A435D21B9
:10154000890000911146009AFFF7C6FD04B080BDE6
:101550007F3300000411000081B000900098024920
:10156000024A425001B0704704080000030000B175
:1015700080B582B0019000910198E549401800992A
:10158000024AFFF7F9FD02B080BDC046FF0300002C
:1015900082B001900091009800780199044A885027
:1015A00000984078019901221203885002B07047D8
:1015B00004100000B0B588B013460C46079006A88A
:1015C000017005A90A70079A084D52190078097828
:1015D00008433F2104901046049A03911146039A50
:1015E00002930194FFF7C8FD08B0B0BD0C110000D4
:1015F00080B586B0059000F06FF8FFE700F076F850
:10160000012189030840884201D0FFE7F6E70598E9
:10161000417E2B48012203900292FFF799FD059825
:101620002021415C274803220190FFF791FDFFF73D
:101630002DFD0490002104220298FFF719FD059862
:10164000406A0068204908600598406A40681F4960
:10165000086004981E4908600598C0694006410C5E
:101660007F2002020198FFF773FD059801680907C2
:10167000090B4268120392B2891882681207120D90
:101680008918C26811430269114342691143007EFF
:101690000143104A0398FFF75BFD13480168029A63
:1016A000130219430160FFE700F020F8012149020D
:1016B0000840884201D0FFE7F6E706B080BDC0468B
:1016C00020010B4024010B4028010B402C010B4052
:1016D0000013404072FF0F0003480168012212020C
:1016E000914301607047C04608010B400148006803
:1016F0007047C04604020B4081B001466A46107034
:101700001078024A106001B07047C04608030B40D1
:1017100080B584B0014603AA108010880F221202FF
:101720003A4B02901846029B01911946FFF724FD9F
:1017300004B080BD80B584B0014603AA1070107853
:1017400000030F221203054B02901846029B0191E1
:101750001946FFF711FD04B080BDC04638010B40AB
:1017600081B001466A4610701078024A106001B0DC
:101770007047C0460C010B4080B584B0014603AAF7
:1017800010701078054A032302901046029A0191C6
:1017900011461A46FFF7F0FC04B080BD00010B4073
:1017A00080B584B0014603AA10701078174A302320
:1017B00002901046029A019111461A46FFF7DCFC8E
:1017C00004B080BD80B582B0014601AA10701078C7
:1017D0000091FFF7C5FFFFE7FFF788FF01214905EB
:1017E0000840884201D0FFE7F6E708480168012277
:1017F000120411430160FFE7FFF778FF1021084052
:10180000102801D0FFE7F7E702B080BD04010B40CC
:1018100080B58CB00B900A910A984079C0070028D7
:101820005FD0FFE70A9800790028079004D0FFE70F
:10183000079820280CD018E00B98882102220691E6
:1018400000F08EF90B980322069900F089F919E04F
:101850000B98212109010222059100F081F90B98D2
:101860000322059900F07CF90CE00B980521C901D1
:101870000222049100F074F90B980322049900F0FD
:101880006FF9FFE70B98002102220391039B02925C
:101890001A46029B00F080F90B980321039A0191EC
:1018A0001146019B00F078F90B9802990091039979
:1018B000039A039B00F0ACF90B98019900910399EE
:1018C000039A039B00F0A4F90B980399039A029BD7
:1018D00000F082F90B980399039A019B00F07CF9C0
:1018E000FFE70A98006808900A98007908A908712B
:1018F0000A98807948710B9800F030F80CB080BDE0
:1019000081B00090009802490122425001B0704716
:101910000811000082B00190009100980199034ADB
:101920008B5803438B5002B07047C046281000000C
:1019300081B0009000980121C902024A425001B0D2
:101940007047C0460100002681B0009000988121B8
:1019500049014058C0B201B07047000080B58CB05A
:101960000B900A910A9800790028099004D0FFE7AB
:101970000998202812D02BE00B980A990968491E73
:1019800000F09EF90B9888210022089100F0E8F8F9
:101990000B980122089900F0E3F82CE00B980A99C3
:1019A0000968491E00F08CF90B9830490022079114
:1019B00000F0D6F80B980121079A06911146069A75
:1019C00000F0CEF80B980699490700F06BF912E089
:1019D0000B980A990968490800F072F90B980521DB
:1019E000C9010022059100F0BBF80B98012205996E
:1019F00000F0B6F8FFE70B9800210491049A049BCD
:101A000000F0CAF80B980121049A03911146039B38
:101A100000F0C2F80B9804990091049A049B00F01E
:101A2000F7F80B98039900910499049A049B00F02D
:101A3000EFF80B980499049A049B00F0CDF80B98EA
:101A40000499049A039B00F0C7F80B98AC4940181E
:101A50000A990A7949790A4302210A430449029101
:101A60001146029AFFF74CFB0CB080BD0104000048
:101A7000BFFF003080B584B00390029103980299B3
:101A8000496800F01DF9029800782228019022D8B8
:101A90000198C0467844007940008744171C171C01
:101AA0001C1C1C1C1C1C1C1C1C1C1C1C111C111C8C
:101AB0001C1C1C1C1C1C1C1C1C1C1C1C111C110098
:101AC00003980121490700F0EDF805E00398002193
:101AD00000F0E8F800E0FFE703980299098A002285
:101AE000009200F0B3F803980299C968009A009B2D
:101AF00000F052F802980178007A01430398804A76
:101B0000815004B080BDC04681B000900098C449A7
:101B1000C44A425001B0704782B0019000910098D1
:101B2000019911221202885002B0704780B586B028
:101B300013460590049103A802700599244A891858
:101B40000291007802998000081802900298049986
:101B5000072292040193FFF7D3FA06B080BDC04676
:101B600080B586B013460590049103A802700599CC
:101B7000074A89180291007802998000081802909B
:101B800002980499034A0193FFF7BAFA06B080BDA0
:101B900070180000DBB6C1FF10B586B01C4605907A
:101BA0000491039202A803700599094A89180191CA
:101BB0000078019980000818019001980499039A0F
:101BC0001143044A0094FFF79BFA06B010BDC046CB
:101BD000301800007777020010B586B01C460590DB
:101BE0000491039202A8037005993122D201891849
:101BF00001910078019980000818019001980499DA
:101C0000039A11438F220094FFF77AFA06B010BDB1
:101C100010B586B0089C059004910392029301A828
:101C200004700599084A891800910078009980008D
:101C300008180090049803990843029908430099F2
:101C4000086006B010BDC0465018000084B01346AE
:101C50000390029101A802700399064A8918009125
:101C60000078009980000818009002980099086098
:101C700004B070471018000082B0019000910098E5
:101C800000780199864A885000984078019901228D
:101C9000120388500098807801999E4A885002B0BB
:101CA0007047C04680B582B00190009101981449F8
:101CB0004018009903221207FFF722FA02B080BDF4
:101CC00082B00190009100980199024A885002B0B8
:101CD0007047C0460818000081B00090009808497D
:101CE000425801231A43425001B0704781B000901E
:101CF00000980349425801231A43425001B07047EB
:101D00000418000081B00090009811210902425887
:101D100001239A43425001B0704781B0009000986F
:101D200011210902425801231A43425001B0704761
:101D300081B00090009811210902425801235B04F0
:101D40001A43425001B0704782B001900091009850
:101D50000199034A8B5803438B5002B07047C04629
:101D60002810000081B0009000980121C902024AA9
:101D7000425001B07047C0460100002681B000907B
:101D80000098812149014058C0B201B0704700005D
:101D900080B584B0039002910398FFF7B3FF0398D6
:101DA00011210902401802990A888B781A43898800
:101DB0000A430B4901911146019AFFF7B5F90398BF
:101DC0002E49401802998A79CB791A43097A0A4335
:101DD0007E2100911146009AFFF7A6F904B080BD5C
:101DE0001867020081B00090009803494058C0B2C3
:101DF000C00901B07047C0460811000081B00090D2
:101E0000009802494058C0B201B070472411000048
:101E100081B0009000980249024A425001B07047D8
:101E200004080000030000B180B586B0059004915D
:101E3000039205980E49401804990E4AFFF79CF941
:101E400005980D49401803993F22FFF795F9059829
:101E50000A49421840580121084002901046029A4F
:101E600001911146019AFFF787F906B080BDC0467F
:101E700010110000FFFF0000141100000411000009
:101E800082B001900091009800780199044A88502E
:101E900000984078019901221203885002B07047DF
:101EA0000810000080B582B00190009101981121C6
:101EB0000902401800990322D203FFF75DF902B02E
:101EC00080BD000080B584B00A46039002A801706E
:101ED0000399104BC91800787023019008460199A6
:101EE00000921A46FFF748F904B080BD80B584B06F
:101EF0000A46039002A801700399064BC91800789E
:101F0000072301900846019900921A46FFF734F919
:101F100004B080BD0C11000082B00A4601906846F2
:101F200001700078019989235B01C85002B07047A5
:101F300080B582B00A46019068460170FFE70198BB
:101F4000FFF750FF002801D0FFE7F8E70198694646
:101F50000978FFF7E1FF02B080BD80B582B0019043
:101F600001A8008803F08CFB02B080BD70B58EB074
:101F700013460C4605460DAE30700CA801700BA937
:101F80000A700078002805D0FFE70CA80078072821
:101F900040DBFFE79C4800210170A8480A910A9A9B
:101FA000FEF756FE0A9800F0FDFF0A980090974A47
:101FB0000221082308460A9C09912146089301F052
:101FC00086FB0A980090924A01210998089B01F02B
:101FD0007EFB0A9800908F4A09980999089B01F0A6
:101FE00076FB0A9800908C4A03210998089B01F01F
:101FF0006EFB0A980090894A04210998089B01F019
:1020000066FB0A980090864A05210998089B01F012
:102010005EFBFFE70DA80078401E0528079000D959
:10202000EEE0079878440079400087440227517712
:102030009DC20CA80078062809D1FFE70020009077
:10204000774A02200521082301F041FBFFE70CA895
:102050000078022809D1FFE7002000906C4A022096
:102060000121082301F033FBFFE701200090674ABC
:1020700002200021082301F02AFBC2E00CA800780E
:1020800001280BD1FFE700200090604A02210823BD
:1020900006900846069901F01AFBFFE70CA80078A5
:1020A00003280AD1FFE7002000905A4A02200823A3
:1020B0000590059901F00BFBFFE701200090544AC1
:1020C0000221082304900846049901F000FB98E0DF
:1020D0000CA80078042809D1FFE7002000904E4AA0
:1020E00002200321082301F0F2FAFFE70CA8007890
:1020F000022809D1FFE700200090454A0220012173
:10210000082301F0E4FAFFE701200090414A022091
:1021100008230390039901F0DAFA72E00CA8007822
:1021200003280AD1FFE7002000903A4A0220082342
:102130000290029901F0CBFAFFE70CA8007805287D
:1021400009D1FFE700200090344A0220042108232F
:1021500001F0BDFAFFE7012000902F4A0220032181
:10216000082301F0B4FA4CE00CA80078042809D147
:10217000FFE700200090284A02200321082301F0F5
:10218000A6FAFFE70CA80078062809D1FFE700208F
:102190000090234A02200521082301F098FAFFE766
:1021A000012000901D4A02200421082301F08FFA2B
:1021B00027E00CA80078052809D1FFE7002000904F
:1021C000164A02200421082301F081FAFFE70CA837
:1021D000007801280BD1FFE7002000900B4A022174
:1021E000082301900846019901F071FAFFE70120E8
:1021F00000900B4A02200521082301F068FA00E054
:10220000FFE70EB070BDC04628042020E3B80000F0
:10221000DAB800004AB8000057B8000064B80000FF
:1022200071B8000080B50120FFF748F9012804D1FA
:10223000FFE7024807F088F8FFE780BDD0012020C3
:1022400080B58AB008A80021017007A80A21017092
:102250009D48012106900591FEF7EEFF02210698A8
:10226000FFF708F90598FFF737F806980599FFF783
:1022700001F9FFE7944802210491FFF7B6F80499A9
:102280000840400800220128039206D1FFE707A872
:102290000078411E88410390FFE70398C00700289B
:1022A00008D0FFE70798401E07A90870052003F033
:1022B000FDF9DFE707A80078002806DCFFE700F05B
:1022C0004FF809A80121017018E07F480121029010
:1022D0000191FEF7B1FF0198FFF72AF80220029959
:1022E000009008460099FFF7C5F802980099FEF79C
:1022F000C5FFFFE7089809A90870FFE709A800785B
:102300000AB080BD80B584B001200390FFF710F8BB
:102310006D48022102900191FFF7ACF802980199F3
:10232000FEF7ACFF02980399FFF7A4F80298019911
:10233000FEF782FF02980199FFF79CF805200090B4
:1023400003F0B4F902980199FEF776FF009803F0C4
:10235000ADF902980399FEF76FFF04B080BDC04647
:1023600080B584B001200390FEF7E2FF56480221B9
:1023700002900191FFF77EF802980199FEF77EFF27
:1023800002980399FEF758FF02980199FEF754FF4F
:1023900002980399FFF76EF80520009003F086F984
:1023A00002980199FFF766F8009803F07FF904B0EE
:1023B00080BDC04680B588B0014607AA10700120D4
:1023C000069005910492FEF7B3FF3F480221039067
:1023D0000291FFF74FF803980299FEF74FFF039819
:1023E0000699FEF729FF03980299FEF725FF0520BD
:1023F00003F05CF904980178002905D1FFE7324821
:102400000221FEF719FF04E02F480221FFF732F8FE
:10241000FFE72D48012101900091FFF72BF80520DF
:1024200003F044F901980099FEF706FF0221019894
:10243000FFF720F808B080BD80B586B001204104C8
:10244000214A0590104604910392FEF7FFFF05987C
:10245000C103F94A104602910192FEF7F7FF019875
:102460000299FEF7D5FE03980499FEF7D1FE06B057
:1024700080BDC04680B584B001204104124A03905B
:102480001046FEF7E3FF0398C103EB4A10460291A2
:102490000192FEF7BDFE01980299FEF7D7FF04B046
:1024A00080BDC04680B582B001204004064901903D
:1024B0000846019A00911146FEF7C8FF009801995D
:1024C000FEF7A6FE02B080BD00000A4080B58AB0CB
:1024D00000200890FFE708980021FEF7F3F8002895
:1024E00026D0FFE7FFE705F02DFA002804D0FFE72C
:1024F000C82003F0C5F8F6E700200690FFE706982D
:102500003B280DDCFFE700F049F8544801680798C4
:10251000FDF739FE0790FFE70698401C0690EEE7AE
:1025200007981D49FDF7C5FE089000200790D2E7E7
:1025300014480121016000200090134A1B21102340
:10254000059008460599049301F0C1F8059800909C
:102550000E4A23200321049B01F0B9F80C480068BF
:10256000FEF7D4F80B49096803900846FEF7CEF849
:102570003B49029008460399029A00F05FF90AB0BD
:1025800080BDC04698022020EEB80000F6B80000DA
:10259000480020204C0020200000704280B58AB006
:1025A0002E4801684160099003F06CFB09990968A5
:1025B0002B4A0890104600F060F909990A684968AA
:1025C00007901046FDF730FE2649FEF75FF8002819
:1025D0000CD1FFE7214881687F22D205069008468A
:1025E0001146FDF7D0FD06998860FFE71B4801689A
:1025F0004068059008460599FDF716FE1A49FEF752
:1026000029F800280BD1FFE714488168174A049085
:1026100008461146FDF7B7FD04998860FFE70F48AB
:10262000016841600168124A03900846114602920F
:10263000FDF7A9FD03998A680E4901901046FDF740
:10264000FBFD0199009008460099FDF79CFD029959
:10265000FDF7EAFD0399C8600AB080BD840120201F
:10266000F8032020000096C300009643000080BFBE
:10267000000034430000B44380B582B00190009163
:102680000198002804D0FFE70098002801D1FFE757
:1026900017E00098006801998861009840680199E6
:1026A000C86100988068019908620098C068019923
:1026B00048630098006901998863019801F00CFA59
:1026C000FFE702B080BD000080B582B001466A46D7
:1026D00010701078002804D0FFE7564801210170DF
:1026E000FFE75448007800286FD0FFE7012001027F
:1026F000A448FEF764FE002820D0FFE70120410235
:10270000A048FEF75CFE002818D0FFE701208102F8
:102710009C48FEF754FE002810D0FFE70120C102BC
:102720009848FEF74CFE002808D0FFE7012001037F
:102730009448FEF744FE002847D1FFE7322002F01C
:10274000B5FF3C4800210170012001028D48FEF7D1
:1027500036FE002804D1FFE701A80121017065E0E1
:10276000012041028748FEF72AFE002804D1FFE736
:1027700001A80321017059E0012081028148FEF780
:102780001EFE002804D1FFE701A8042101704DE0DE
:102790000120C1027B48FEF712FE002804D1FFE7AA
:1027A00001A80521017041E0012001037548FEF7F1
:1027B00006FE002804D1FFE701A80221017035E0E0
:1027C000FFE7FFE7FFE7FFE72CE0012001026D488C
:1027D000FEF7F5FD002824D0FFE7012041026948FB
:1027E000FEF7EDFD00281CD0FFE7012081026548BF
:1027F000FEF7E5FD002814D0FFE70120C102614883
:10280000FEF7DDFD00280CD0FFE7012001035D4845
:10281000FEF7D5FD002804D0FFE70648012101702E
:10282000FFE7FFE701A800210170FFE701A800789A
:1028300002B080BD0800202000200A4010B583B0FF
:1028400013460C460290019100920298002101600B
:10285000029841610198029A50620098029A90622F
:1028600002987F22D205C261029801620298C26278
:1028700002980168416003B010BD10B58EB00A46E1
:102880000D900C910D98C16903680B90084619468C
:102890000A92FDF7D1FC0B9948600D98C269416915
:1028A00009901046FDF7C8FC0999496AFDF76BFCD1
:1028B0000999C8600D98C268816A0890104607920D
:1028C000FDF761FC0799069008460699FDF7F1FCB3
:1028D000089988610D98426883690C9C0590204690
:1028E000114604920393FDF79FFC0399029008465A
:1028F0000299FDF7A1FC0499019008460199FDF7A2
:1029000042FC059988600D9881697F22D20500906C
:102910001046FDF789FC0099C968FDF78DFC009908
:1029200008610D98026942610D98826802600D98F5
:1029300080680EB010BD000080B584B0024603ABC5
:102940001870029118780028019008D0FFE70198CC
:10295000012809D0FFE7019802280AD00EE0029969
:102960000848FEF74BFC0AE002990648FEF764FDB2
:1029700005E002990348FEF795FD00E0FFE704B08B
:1029800080BDC04600200A40F0B589B014460D460F
:10299000064607AF387006A8017005A802700493B8
:1029A000029401950096FFF7ADFC07984006000ED3
:1029B00001F0C6FBFFF744FC012806D1FFE7FFF753
:1029C000CFFC08A8012101704BE006A8007801F0B7
:1029D000B7FBFFF735FC012806D1FFE7FFF7C0FC86
:1029E00008A8022101703CE0FFF78CFC079840002A
:1029F000401CC0B201F0A4FBFFF722FC012806D165
:102A0000FFE7FFF7ADFC08A80321017029E003A848
:102A100000210170FFE703A8007805A90978491E85
:102A200088420FDAFFE701F075F8049903AA1278DB
:102A300088540020FFF7BEFCFFE70398401C03A961
:102A40000870E8E701F066F8049903AA1278885440
:102A50000120FFF7AFFCFFF783FC08A800210170FD
:102A6000FFE708A8007809B0F0BDF0B589B01446BA
:102A70000D46064607AF387006A8017005A802701B
:102A8000049303A800210180029401950096FFF7AA
:102A900039FC07984006000E01F052FBFFF7D0FB0F
:102AA000012806D1FFE7FFF75BFC08A801210170B0
:102AB00037E006A8007801F043FBFFF7C1FB0128CF
:102AC00006D1FFE7FFF74CFC08A80221017028E0BF
:102AD00003A800210180FFE703A8008805A9097861
:102AE000884218DAFFE7049803A90988405C01F0DE
:102AF00027FBFFF7A5FB012807D1FFE7FFF730FC15
:102B00000398C01C08A908700BE0FFE70398401C5D
:102B100003A90880E0E7FFF723FC08A80021017063
:102B2000FFE708A8007809B0F0BD000070B588B0D4
:102B300013460C46054607AE307006A8017005A97D
:102B40000A70007802281BD1FFE74248002101707B
:102B50000846049100F026FA04980090124A2320B7
:102B60000821049B03911946039B00F0B0FD0498D3
:102B700000900E4A02200321039B00F0A8FDFFE70E
:102B8000FFF70CFD0A480068FDF7E6FD0021009103
:102B9000322103220823029008461146029A00F0CF
:102BA000E5FB08B070BDC046C6B8000021B8000003
:102BB0008401202070B58AB013460C46054609AE44
:102BC000307008A8017007A90A70007820490978B8
:102BD00088420CD0FFE70020069000F0E3F9E748B8
:102BE00006990170EA48069AFEF732F8FFE70020DE
:102BF0000090194A1B21102305900846059904935B
:102C000000F065FD05980090144A23200321049BE1
:102C100000F05DFD05980090114A4620072106232B
:102C20000391029300F053FD0E4800680E49FDF732
:102C300003FBFDF7AAFD059900915A220190104669
:102C40000399019A029B00F091FB0AB070BDC04647
:102C5000B404202028042020AFB80000BEB8000033
:102C6000A3B80000B80420200000204170B5A4B033
:102C700013460C46054623AE307022A8017021A9E8
:102C80000A7020A900220A70007801282DD1FFE7E0
:102C9000B94800210160B9480122027008461F911D
:102CA00000F080F91F980090B54A1C2010231F994E
:102CB00000F00DFD1F980090B24A0221082308463B
:102CC0001E911D9300F003FD1F980090AE4A032152
:102CD0001E981D9B00F0FBFC1F980090AB4A04213E
:102CE0001E981D9B00F0F3FCFFE721A80078002848
:102CF00034D0FFE721A8007801281C9008D0FFE716
:102D00001C98022811D0FFE71C9805281DD023E04D
:102D100099480168491C01600068C82804DBFFE786
:102D20009548C8210160FFE717E093480168491EF4
:102D300001600068C721C943884205DCFFE78E486F
:102D4000C721C9430160FFE707E08B48016890484D
:102D50000022FDF77DFF00E0FFE7FFE78C488821B8
:102D600042589823C3588B4C1B9020461A91114609
:102D70001A4606F0CFFA1B981A994258012A19DB15
:102D8000FFE700200090864A28210223082419909A
:102D90000846194618932346179400F098FC7C487F
:102DA000882142581998009032201899179B00F0FA
:102DB000FFFB37E076488821405800281AD5FFE706
:102DC00000200090754A2821022308241690084606
:102DD000194615932346149400F079FC6C48882119
:102DE000405842421698009032201599149B00F0EA
:102DF000DFFB16E000200090674A28210223082408
:102E000013900846194612932346119400F05FFC74
:102E10001398009032201299139A119B00F0C8FB6E
:102E2000FFE7FFE75A4898214058012819DBFFE7E0
:102E3000002000905A4A28210323082410900846B5
:102E400019460F9323460E9400F041FC50489821F8
:102E500042581098009032200F990E9B00F0A8FB6A
:102E600036E04B489821405800281AD5FFE700204B
:102E700000904A4A2821032308240D900846194649
:102E80000C9323460B9400F022FC414898214058B3
:102E900042420D98009032200C990B9B00F088FB69
:102EA00015E0002000903C4A2821022308240A90C3
:102EB000084619462346099400F009FC0A98009038
:102EC000322003210A9A099B00F072FBFFE7FFE71B
:102ED00029480068012818DBFFE700200090304AED
:102EE00028210423082408900846194607932346FE
:102EF000069400F0ECFB204802680898009032200D
:102F00000799069B00F054FB34E01B48006800283A
:102F100019D5FFE700200090204A28210423082427
:102F200005900846194604932346039400F0CFFB0E
:102F30001148006842420598009032200499039B92
:102F400000F036FB15E000200090134A28210223F0
:102F500008240290084619462346019400F0B7FB66
:102F60000298009032200421029A019B00F020FB7D
:102F7000FFE7FFE724B070BD98012020280420203F
:102F8000CFB8000085B800008CB800007EB8000003
:102F9000D00120201AB8000026B8000048B8000070
:102FA00046B8000080B584B0039002A800210170EB
:102FB000FFE702A80078072828DCFFE702A80078CE
:102FC000B0300021009100F0D6FB0098009900F08D
:102FD000D2FB1020009900F0CEFB01A800990170EF
:102FE000FFE701A800787F280ADCFFE703980121AA
:102FF00000F0C1FBFFE70198401C01A90870F0E751
:10300000FFE70298401C02A90870D2E704B080BD17
:1030100080B582B0012041043D4A01901046FEF780
:1030200015FA0198C1033B48FEF710FAC820FEF7D5
:1030300094FFAE200021009100F09DFB00980099C4
:1030400000F099FB1020009900F095FB40200099BA
:1030500000F091FBB020009900F08DFB81200099D9
:1030600000F089FBFF20009900F085FBA620009965
:1030700000F081FBA820009900F07DFB3F20009923
:1030800000F079FBD320009900F075FB00980099BF
:1030900000F071FBD520009900F06DFB80200099B5
:1030A00000F069FBD820009900F065FB052000992D
:1030B00000F061FBD920009900F05DFBF120009940
:1030C00000F059FBDA20009900F055FB122000991E
:1030D00000F051FBDB20009900F04DFB30200099FF
:1030E00000F049FB8D20009900F045FB1420009969
:1030F00000F041FBA020009900F03DFBC0200099AA
:1031000000F039FBAF20009900F035FB02B080BD24
:1031100000000A4000200A4070B586B013460C46F5
:10312000054605AE307004A8017003A802700020A7
:10313000029301940095FFF735FF06B070BD10B5FE
:1031400083B00A46034602AC207001A8017001203A
:103150000090FFE701A801784A1E0270002906D0FE
:10316000FFE702A80078009948430090F2E7009832
:1031700003B010BD10B586B00A46034605AC2070FA
:1031800004A801700078B0300021039102920193ED
:10319000009400F0F0FA009801780909103108460F
:1031A000039900F0E8FA009801780F2211400846D0
:1031B000039900F0E0FA06B010BD0000F0B58FB042
:1031C000149C1D4616460F46079006900EA80590C3
:1031D00007980491059908700DA8049901700CA82E
:1031E00002700BA803700AA8047009A800220270DC
:1031F00008AB1A700C9A203A027005980278802A5F
:1032000008DBFFE70EA8002101700D98801C0DA9B6
:103210000870FFE70BA8007810286AD1FFE70EA816
:1032200000780DA90978FFF7A5FF08A80021017013
:10323000FFE708A80078072824DCFFE70AA8007841
:1032400000280BD0FFE709A80078000108A9097839
:1032500040184549085CC043039009E009A800787C
:10326000000108A9097840183F49085C0390FFE76E
:103270000398012100F07FFAFFE70898401C08A995
:103280000870D6E70EA800780D99491CC9B2FFF75F
:1032900071FF08A800210170FFE708A8007807283F
:1032A00026DCFFE70AA8007800280CD0FFE709A871
:1032B0000078000108A9097840182B494018007AC5
:1032C000C04302900AE009A80078000108A9097823
:1032D000401825494018007A0290FFE70298012122
:1032E00000F049FAFFE70898401C08A90870D4E7E5
:1032F00035E00EA800780DA90978FFF73BFF08A874
:1033000000210170FFE708A80078052826DCFFE708
:103310000AA8007800280CD0FFE709A80078062149
:1033200041431048401808A90978405CC043019007
:103330000AE009A80078062141430A48401808A974
:103340000978405C0190FFE70198012100F013FA31
:10335000FFE70898401C08A90870D4E7FFE70FB002
:10336000F0BDC046C0A20000E8A40000F0B5A3B0C4
:10337000289C1D460E4607461D9022A81C901D98AD
:103380001B911C99087021A91B98087020921FAAF4
:1033900013701EAB1C70229C10781A9080002018AD
:1033A000401E0C781990209818900A2017901898B1
:1033B00016911799159514961397129211931094CC
:1033C000FDF74CFA119A137801931A9B0093199CFC
:1033D000E4B201250F902046109C0E9121460E9AD2
:1033E0002B460D9500F05EF8229812990A78032377
:1033F0005343C018401E169B1978119C25780095E0
:10340000C0B2274D0C922A460C9B00F060F922981E
:1034100012990A785300C018401E169B1978209CF8
:103420000B902046179C0A9121460992FDF716FA47
:103430001799FDF713FA119A13780193099B0093DA
:103440000B9CE4B2089020460A9C07912146079AFB
:103450000D9B00F027F8229812990A788018401ED8
:10346000169B1978209C64250690204605912946D4
:103470000492FDF7F3F91799FDF7F0F9119A137813
:103480000193049B0093069CE4B203902046059CA4
:1034900002912146029A0D9B00F004F823B0F0BD82
:1034A00087B70000F0B593B0199C189D1E460F46D3
:1034B0000990089012A8079009980691079908703A
:1034C00011A90698087010920FA90B700EA90D7023
:1034D0000DA90C700AA900220A700CA90A70FFE756
:1034E0000CA800780FA9097888425FDAFFE71098E6
:1034F0000F990C9AD2435118C9B20A22059010466E
:10350000049205F051FD0599039008460399FDF7D3
:10351000A5F90499FDF7A2F90BAA11700AA9097877
:10352000002927D1FFE70CA800780FA90978491EC8
:1035300088421FDAFFE70BA80078002815D1FFE7C3
:1035400012980EA909784A080C9B5343C01811AA77
:1035500012780DAB1B780093C0B220230291114664
:103560001A46029BFFF72AFE1BE00AA80121017000
:10357000FFE7FFE712980EA909784A080C9B53430E
:10358000C01811AA12780B9B30330DAC247800942C
:10359000C0B2DBB2019111461A46019BFFF70EFE45
:1035A000FFE70C98401C0CA9087099E713B0F0BD18
:1035B000F0B593B0189C1D460E460746089012A819
:1035C0000790089806910799087011A90698087045
:1035D00010920FA90B700EAA14700BAA002313707F
:1035E000109A09920978082904D1FFE70BA8022153
:1035F0000170FFE7FFE7099800280AD0FFE70A9863
:10360000401C0AA9087009980A21FDF727F90990BA
:10361000F1E70DA800210170FFE70DA800780AA9C5
:103620000978884251DAFFE710980A990D9AD24337
:103630005118C9B20A22059010460492FFF77FFD87
:103640000599039008460399FDF708F90499FDF7D9
:1036500005F90CAA11701178002917D1FFE712980B
:103660000FA909784A080B9BD2180D9B5343C01829
:1036700011AA12780EAB1B780093C0B230230291CE
:1036800011461A46029BFFF799FD18E012980FA900
:1036900009784A080B9BD2180D9B5343C01811AAF6
:1036A00012780C9B30330EAC24780094C0B2DBB29D
:1036B000019111461A46019BFFF780FDFFE7FFE7E6
:1036C0000D98401C0DA90870A7E713B0F0BDF0B528
:1036D0008BB0109C1D460E46074604900AA8039026
:1036E000049802910399087009A902980870089239
:1036F00007A90B7006A90C7005A900220A70FFE744
:10370000089805A90978405C002832D0FFE70AA88C
:10371000007809A90978089A05AB1B78D25C07AB39
:103720001C7806AD2D78009501932346FFF746FDE2
:1037300001980178102905D1FFE70A9808300AA9F5
:10374000087004E00A98801D0AA90870FFE70AA81B
:103750000078792808DBFFE70AA8002101700998A2
:10376000801C09A90870FFE70598401C05A908708E
:10377000C6E70BB0F0BD80B582B001900091009813
:10378000002805D0FFE701A8007801F0B0FE04E0B2
:1037900001A8007801F08EFEFFE702B080BD0000B6
:1037A00070B5A0B01C4615460E461E901D911C9289
:1037B0001BA803701E98002803D1FFE700201F906C
:1037C00085E11E98416881601E98016841601C98DF
:1037D0001D99FCF729FD1E9908601E980168426832
:1037E0001A9010461991FCF71FFD3F210906FCF7BE
:1037F00023FD1999189008461899FCF7C4FC1A99EA
:1038000008601BA800780028179000D1D3E0179813
:10381000012800D056E11E9880690021FCF752FF74
:10382000002813D1FFE71E9881690268436816904B
:10383000104615911946FCF7F7FC159914900846A7
:103840001499FCF7F9FC1699486203E01E980021D0
:103850004162FFE71E98C0690021FCF733FF002892
:103860002ED1FFE71E98C1690268139008461146E1
:10387000FCF7E2FC139988621E98826A816B1046FD
:10388000FCF7E8FE002804D1FFE71E98816B8162F7
:1038900015E01E98816A806B0122D2075040129079
:1038A00008461299FCF7F2FE002807D1FFE71E98A0
:1038B000816B0122D20751408162FFE7FFE703E0FD
:1038C0001E9800218162FFE71E98006A0021FCF724
:1038D000F9FE002839D1FFE71E98016941611E9861
:1038E000C16801611E9801684268119010461091EC
:1038F0001146FCF748FC10990F9008460F99FCF709
:1039000093FC11998968FCF73EFC1199C8601E98D8
:10391000C26803690E90184611460D92FCF784FCAC
:103920006C49FCF789FC0D990C9008460C99FCF742
:103930002AFC0E99C8601E98026AC1680B90104656
:10394000FCF77AFC0B99C86203E01E980021C16263
:10395000FFE71E98416A826A0A9008461146FCF702
:1039600012FC0A99C96AFCF70EFC0A9908631E98B2
:10397000026B416B1046FCF76DFE002804D1FFE797
:103980001E98416B016315E01E98016B406B01228C
:10399000D2075040099008460999FCF777FE0028A5
:1039A00007D1FFE71E98416B0122D2075140016306
:1039B000FFE7FFE787E01E988169026808900846E4
:1039C0001146FCF739FC089948621E98C2690168E3
:1039D00007901046FCF730FC07998A6A069010465B
:1039E0000699FCF7D0FB079988621E98026942612C
:1039F0001E98C26802611E980268416805901046D0
:103A0000FCF712FC0599C8601E98026AC168049010
:103A10001046FCF711FC0499C8621E98826A816BFB
:103A20001046FCF717FE002804D1FFE71E98816BB3
:103A3000816215E01E98816A806B0122D207504096
:103A4000039008460399FCF721FE002807D1FFE701
:103A50001E98816B0122D20751408162FFE7FFE788
:103A60001E98416A826A029008461146FCF78BFB59
:103A70000299C96AFCF787FB029908631E98026BDA
:103A8000416B1046FCF7E6FD002804D1FFE71E98C5
:103A9000416B016315E01E98016B406B0122D20758
:103AA0005040019008460199FCF7F0FD002807D12D
:103AB000FFE71E98416B0122D20751400163FFE7E7
:103AC000FFE700E0FFE71E98006B1F90FFE71F98DD
:103AD00020B070BDCDCC4C3D81B000900098002846
:103AE00001D1FFE713E00098002181600098416058
:103AF00000980160009801610098C1600098C1625F
:103B0000009881620098416200980163FFE701B06C
:103B10007047000080B586B004A800210170012024
:103B20000391FDF7D9FB05A803990170FFE705A8EC
:103B30000078072834DCFFE7AE48012102900191AC
:103B4000FDF77AFB0520009001F0B0FD0298019985
:103B5000FDF790FC009801F0A9FD0498400004A92D
:103B6000087002210298FDF740FC8007002804D568
:103B7000FFE70120002804D109E00120002806D138
:103B8000FFE704980121084304A90870FFE7052016
:103B900001F08CFDFFE70598401C05A90870C6E7F9
:103BA00094480121FDF748FB04A8007806B080BDC9
:103BB00080B58AB018490120820709901046089202
:103BC000FDF704FA00200490039002900190009009
:103BD00002220899079008460799079BFDF774F998
:103BE000099801040898FDF717FA0C490898FDF7A1
:103BF00023FA0998010208980691FDF759F90898E7
:103C00000699FDF7A1F90420032101F0F5FC0898BD
:103C1000FDF784F90AB080BDD0B600007102000043
:103C200080B58EB01E2007210D91FDF7AFFB01205E
:103C300081036F4A0C9010460B92FDF715FB08208C
:103C40000D990A9008460A99FDF7A0FB694809906A
:103C50000A99FDF709FB142002210891FDF796FB54
:103C600015200899FDF784FB12200899FDF78EFBBB
:103C700013200899FDF77CFB212003210791FDF714
:103C800085FB23200799FDF781FB22200799FDF78B
:103C90006FFB37200799FDF779FB002000900C9906
:103CA0004A0426230690184606990592069BFDF7BE
:103CB00049FB3520FDF706FB3420FDF703FB0A988E
:103CC000FDF700FB0620FDF7FDFA3B20FDF726FB84
:103CD0000D20FDF7F7FA0A20FDF7F4FA0920FDF7A9
:103CE000F1FA3820FDF71AFB3920FDF717FB3120D8
:103CF000FDF714FB069800901F200699059A069B75
:103D0000FDF720FB2B20FDF7DDFA2C20FDF7DAFA7A
:103D100010200490FDF702FB1120FDF7FFFA16209A
:103D2000FDF7FCFA1720FDF7F9FA069800900C2031
:103D30000699059A069BFDF7D9FA06980090182077
:103D40000699059A069BFDF7D1FA0698009019206E
:103D50000699059A069BFDF7C9FA069800901A2065
:103D60000699059A069BFDF7C1FA069800901B205C
:103D70000699059A069BFDF7B9FA069800901C2053
:103D80000699059A069BFDF7B1FA0C98FDF7C6FA5D
:103D90000698FDF7C3FA18490998FDF71BFA099828
:103DA0000799FDF735FB15490998FDF75DFA0520E0
:103DB00081030998FDF76AFB0798C10509980391EB
:103DC000FDF7EEF909980399FDF740FA0C480B99B5
:103DD000029008460299FDF7FDF90B980299FDF74C
:103DE00043FA0B980499FDF751FB0EB080BDC04615
:103DF00000200A4000000A400000020803000208F8
:103E0000F080400C80B582B00B49CC480190FDF7A2
:103E1000BFFB0A490198FDF775FB03210198FDF7E7
:103E2000A7FB102102220198FDF7C4FB0198FDF7C2
:103E300053FB02B080BDC046D8B60000DAB6000021
:103E400080B584B01D49B8480390FDF715FF1C49A3
:103E50000398FDF7DDFC00200399029008460299C3
:103E6000029AFDF7F3FE0298009003980299029AD5
:103E7000029BFDF7CDFE03980299029AFDF756FECC
:103E800001200399019008460299019AFDF7DEFE90
:103E90000198009003980299029A029BFDF7B8FEE0
:103EA00003980299019AFDF741FE0398FDF728FD5A
:103EB00003210398FDF730FE04B080BDE4B6000096
:103EC000E8B6000080B582B000200190FDF714FC38
:103ED0000120410200900846FDF71AFC0198FDF709
:103EE0004BFC0948FDF784FB1020FDF759FC092025
:103EF000FDF720FC0198FDF765FC0098009901F0A2
:103F00007BFB02B080BDC046F0B6000080B5024821
:103F100000F0CAF980BDC0468038010080B582B08B
:103F20000A4982480190FDF7A7FE09490198FDF76B
:103F3000A1FD01210198FDF7EDFC1020022101F007
:103F40005BFB0198FDF7DCFC02B080BD18B70000F8
:103F50001CB7000080B582B00C4975480190FDF790
:103F60008BFE0B490198FDF785FD0120019900901A
:103F700008460099FDF7CEFC1520009901F03CFBA6
:103F80000198FDF7BDFC02B080BDC04630B700000F
:103F900034B7000080B582B0114966480190FDF742
:103FA0006FFF10490198FDF7F3FE00210198FDF71E
:103FB00079FF4120810019220198FDF735FF01208A
:103FC0008102019A00901046FDF7BEFE0F20009975
:103FD00001F012FB0198FDF7A0FE02B080BDC046C3
:103FE00048B700004AB7000080B582B01649524871
:103FF0000190FDF745FF15490198FDF7C9FE002125
:104000000198FDF74FFF4120810019220198FDF72B
:104010000BFF01208102019A00901046FDF794FEEB
:104020000D20009901F0E8FA0198FDF781FE70215A
:104030000198FDF747FF02210198FDF757FF01980E
:10404000FDF76BFE02B080BD54B7000056B700000C
:1040500080B500F021F8FFF7E3FDFFF733FFFFF72E
:10406000EFFEFFF75BFFFFF775FFFFF793FFFFF72B
:10407000BBFFFFF7C7FEFFF79BFDFFF747FF0448B5
:10408000B8210022425403482421425480BDC04636
:10409000DC022020B402202080B58AB0814809903B
:1040A000FDF7AEF97D480890FDF7AAF91E48079084
:1040B000FDF72AFDA1480690FDF726FDAB480590C7
:1040C000FDF722FD1B480490FDF7A2FE1A4803905D
:1040D000FDF79EFE19480290FDF73EFA0120800789
:1040E0000190FCF767FF0998FDF7D4F80898FDF7F1
:1040F000D1F80798FDF71CFC0698FDF719FC059808
:10410000FDF716FC0498FDF72DFE0398FDF72AFE37
:104110000298FDF7EBF90198FCF722FF1020FCF75D
:10412000BDFF0AB080BDC046000086400040084088
:104130000000874000801040000010400080464092
:1041400080B58AB0014609AA1070002008900122AB
:104150000790104606910592FDF7EAF851480221B2
:1041600004900391FDF786F904980399FDF786F80A
:1041700004980599FDF760F807980890FFE70898FC
:1041800007282DDCFFE709A80078C009002805D022
:10419000FFE744480221FDF76DF904E041480221A0
:1041A000FDF74AF8FFE70120029001F07FFA3D4851
:1041B00001900299FDF75EF90520009001F076FA72
:1041C00001980299FDF738F8009801F06FFA099804
:1041D000400009A90870FFE70898401C0890CEE746
:1041E0000AB080BD80B584B003A8002101802B49AE
:1041F0000222029008461146FDF7ECF828490870A3
:1042000028488022019000911146FDF7E3F80099BB
:10421000487040210198FDF7DDF800998870202151
:104220000198FDF7D7F80099C87010210198FDF7A3
:10423000D1F80099087104210198FDF7CBF8009995
:1042400048710878421E9041039A02430298028006
:104250004A78531E9A415200039B134303808A7885
:10426000531E9A419200039B13430380CA78531E46
:104270009A41D200039B134303800A79531E9A414B
:104280001201039B134303804A79531E9A41520142
:10429000039B13430380008804B080BD00200A40C4
:1042A0007904202000000A4080B584B00290029872
:1042B000401E000E002803D0FFE70120039013E00A
:1042C0000298401E0A4908600020C1430322019061
:1042D0000846114601F090F9064801990160064828
:1042E000072202600391FFE7039804B080BDC04637
:1042F00014E000E018E000E010E000E0024801688F
:10430000491C01607047C0469004202080B582B0EF
:104310000A48FDF719FB01280DD1FFE7084802F014
:10432000F7FED648FCF7A6FC064803F060F90648FD
:1043300003F05DF900E0FFE702B080BD00400840F7
:1043400094042020B40120203004202080B50748A8
:10435000FDF7FAFA012806D1FFE7054802F0D8FE7A
:1043600002F0FCFE00E0FFE780BDC0460000874091
:10437000A404202081B000902548002101700098FD
:104380000149086001B070478004202080B584B0E6
:10439000FEF704F9B148C068B14908601C480078CC
:1043A000002829D1FFE7FFE701F01CFA002807D019
:1043B000FFE7B24800210291029AFCF749FC1AE09B
:1043C000FEF7ECF8A548A6490A68C168A84800238A
:1043D000FFF7E6F9A749086008680E49FBF72CFFCC
:1043E000FCF7BAF9A5493222019008461146019A14
:1043F000FCF72EFCD8E7FFE70548012101709F4834
:1044000000210091009AFCF723FC04B080BDC04657
:104410004D0420209A99193F80B582B001900091F7
:10442000924800210170019804490860009897495A
:10443000086002F093FE02B080BDC04684042020D4
:1044400080B596B000201490FEF7A8F88348C068A5
:104450008349086008688349FBF795FE8249086034
:1044600082480078002800D0F6E0FFE701F0BAF9B2
:10447000002807D0FFE7814800211391139AFCF729
:10448000E7FB1AE0FEF78AF8744875490A68C168C4
:1044900077480023FFF784F9764908600868764971
:1044A000FBF7CAFEFCF758F974493222129008460D
:1044B0001146129AFCF7CCFBD8E771480021016045
:1044C000FFE76648C1686F4A116011901092FEF7CD
:1044D00065F81198C168109A10680F91FBF7A4FE57
:1044E0006949FBF7A9FE0F990E9008460E99FBF754
:1044F0004AFE1199C860654801686548008800B2A5
:10450000032242435D48FCF7A3FB62480078002881
:1045100025D1FFE75A4800688008AF281FD3FFE77E
:1045200056488021405840094B2818D3FFE7FE48E1
:1045300000210D910D9AFCF78BFB3F200006C8214E
:1045400004220C9008460C9B0B9119460A9201F02C
:104550002FF90B980C990A9A03F0A6F800E0B0E73F
:10456000FFE701F03FF9002807D0FFE7EE48002100
:104570000991099AFCF76CFB31E0E248C168414AB5
:10458000116008900792FEF709F80898C168079A29
:1045900010680691FBF748FE3B49FBF74DFE069974
:1045A000059008460599FBF7EEFD0899C860D948C3
:1045B0000268C968D9480023FFF7F2F8D8490860B3
:1045C00008683549FBF738FEFCF7C6F8D6493222B1
:1045D000049008461146049AFCF73AFBC1E7D44818
:1045E00000210160FFE729480168D348008800B234
:1045F00003224243CC48FCF72BFBD048007800282C
:1046000022D1FFE7CA4800688008AF281CD3FFE723
:10461000C5488021405840094B2815D3FFE73F206B
:104620000006C821042203900846039B0291194604
:10463000019201F0BDF802980399019A03F034F851
:104640000A480221017000E0CDE7B748002100913F
:10465000009AFCF7FDFAFFE716B080BD8401202028
:10466000BC042020000034C3000520204E0420207C
:10467000C40420208C0420203333333FD001202079
:10468000F00320202C042020CDCC4C3D8804202099
:104690009A0320204C0420209A99993F80B59B488A
:1046A0000021017002F05AFD80BDC04680B590B077
:1046B0000F9000200D90FDF771FF9248C06892495D
:1046C000086092480078002800D018E18E48006801
:1046D0008F49FBF758FD8F490860FFE7FDF75EFF44
:1046E0008848C0688B490968FBF79EFDFCF786F88F
:1046F0000122D20791430022874BFBF7F1FF0028EC
:1047000001D1FFE718E07F4882490A68C168834801
:1047100000230C93FFF744F8814908600868814939
:10472000FBF78AFDFCF718F87F490B9008460C99B7
:104730000B9AFCF78DFAD1E7FFE7FDF72FFF01F0A9
:1047400051F8002801D0FFE718E06E4871490A6867
:10475000C16872480023FFF723F8714908600868B0
:104760007249FBF769FDFBF7F7FF6F491E220A90BC
:10477000084611460A9AFCF76BFADEE76C480021FE
:104780000160FFE7FDF70AFF6A4801686A48008890
:1047900000B2032242436448FCF75AFA67480078A3
:1047A00000281FD1FFE762480068C0084B2819D3D2
:1047B000FFE73F200006C821042209900846099B14
:1047C00008911946079200F0F3FF08980999079A93
:1047D00002F06AFF4C4800685949FBF7D4FC4D4988
:1047E000086000E0CEE74B4856490160FFE7FDF75F
:1047F000D5FEFC48C06847490968FBF715FDFBF783
:10480000FDFF0122D20791430022FC4BFBF768FF1A
:10481000002801D1FFE718E04B48F7490A68016812
:10482000F74800230693FEF7BBFFF64908600868C7
:104830004649FBF701FDFBF78FFFEC490590084661
:104840000699059AFCF704FAD1E7FFE7FDF7A6FE03
:1048500000F0C8FF002801D0FFE718E0E148E64972
:104860000A68C168E6480023FEF79AFFE549086038
:104870000868E649FBF7E0FCFBF76EFFDB491E2208
:10488000049008461146049AFCF7E2F9DEE7E04896
:1048900000210160FFE7FDF781FE26480168DE4840
:1048A000008800B203224243D048FCF7D1F9DB482C
:1048B0000078002821D1FFE7D5480068DC4988420C
:1048C0001BD3FFE7C94800210391039AFCF7C0F905
:1048D0003F200006C821042202900846029B019155
:1048E0001946009200F064FF01980299009A02F0C4
:1048F000DBFE06480221017000E0CCE7FFE710B0C4
:1049000080BDC04684012020BC0420204F0420200C
:1049100000000CC20005202000001440C404202028
:104920008C04202000004040D00120203333333F4E
:10493000F00320205C0020209A0320204C0420203B
:10494000000034C300005643C00420209A99193F48
:1049500080B5A7480021017002F000FC80BDC04670
:1049600080B590B000200E909D490860FDF716FEBE
:104970009C48C0689C490860FFE799480068042883
:1049800000DD25E19A480078002800D018E196481B
:1049900000689849FBF7F7FB97490860FFE7FDF7C8
:1049A000FDFD9048C06894490968FBF73DFCFBF7A2
:1049B00025FF0122D20791430022904BFBF790FE86
:1049C000002801D1FFE718E086488B490A68C168D2
:1049D0008B4800230D93FEF7E3FE8A4908600868C0
:1049E0008949FBF729FCFBF7B7FE80490C90084684
:1049F0000D990C9AFCF72CF9D1E7FFE7FDF7CEFDF6
:104A000000F0F0FE002801D0FFE718E075487A4971
:104A10000A68C1687A480023FEF7C2FE7949086037
:104A200008687A49FBF708FCFBF796FEF7491E2257
:104A30000B90084611460B9AFCF70AF9DEE774481A
:104A400000210160FFE7FDF7A9FD72480168724887
:104A5000008800B203224243EC48FCF7F9F86F48A3
:104A6000007800281FD1FFE769480068C0084B287C
:104A700019D3FFE73F200006C82104220A90084608
:104A80000A9B09911946089200F092FE09980A992A
:104A9000089A02F009FE544800686149FBF773FB6D
:104AA0005549086000E0CEE753485E490160FFE7E2
:104AB000FDF774FD4B48C0684F490968FBF7B4FB2C
:104AC000FBF79CFE0122D207914300224B4BFBF7E0
:104AD00007FE002801D1FFE718E0534846490A685D
:104AE0000168474800230793FEF75AFE45490860CE
:104AF00008684E49FBF7A0FBFBF72EFEC349069062
:104B000008460799069AFCF7A3F8D1E7FFE7FDF7F7
:104B100045FD00F067FE002801D0FFE718E03148AE
:104B200035490A68C16836480023FEF739FE354921
:104B3000086008683549FBF77FFBFBF70DFEB349BA
:104B40001E22059008461146059AFCF781F8DEE71B
:104B50002F4800210160FFE7FDF720FD2D48016887
:104B60002D48008800B203224243A848FCF770F8A1
:104B70002A480078002821D1FFE7254800682C4901
:104B800088421BD3FFE7A14800210491049AFCF757
:104B90005FF83F200006C821042203900846039BCB
:104BA00002911946019200F003FE02980399019ABE
:104BB00002F07AFD0E480221017000E0CCE7FFE729
:104BC00007480168491C0160094800210170D4E6CA
:104BD0008E4800210091009AFCF73AF810B080BD91
:104BE0008002202084012020BC042020D00120202D
:104BF0005004202000000CC20005202000001440BA
:104C0000C40420208C042020000040403333333F74
:104C1000F0032020600020209A0320204C04202054
:104C2000000034C300005643C00420209A99193F65
:104C30002602000070B590B013460C4605460FAE34
:104C400030700EA801700DA90A700078032832D1C7
:104C5000FFE768480021017067483C220260006855
:104C60000C91FFF787FB6548012101700C98FEF756
:104C700099F90C980090624A2321102308460C9C55
:104C80000B9121460A93FEF722FD0C9800905D4A95
:104C900003210B980A9BFEF71AFD0C9800905A4AC4
:104CA000022007210823FEF712FD58480C990C9AA0
:104CB000FBF7CEFFFFE70DA80078002800D18EE0BB
:104CC0000DA800780128099008D0FFE7099802286C
:104CD0001CD0FFE70998052830D07FE046480168DE
:104CE000491C01600068642804DBFFE74248642136
:104CF0000160FFE740480268002001900C2000900E
:104D0000322007210323FEF7CDFB67E03A48016814
:104D1000491E01600068002804DCFFE736480021D6
:104D20000160FFE734480268002001900C200090E9
:104D3000322007210323FEF7B5FB4FE02D48017811
:104D40000122511A0170007800283DD0FFE70020B1
:104D50000090EC4A23210323102408900846079171
:104D60001946069323460594FEF7B1FC22480068D5
:104D7000FFF700FB0698810601221046049103927A
:104D8000FDF7DAFD6420029000F07AFC089804999F
:104D9000FDF7D2FD029800F073FC03980499FDF72B
:104DA000CBFD029800F06CFC08980499FDF7C4FD57
:104DB000029800F065FC08980090D34A079806997D
:104DC000059BFEF784FC08E000200090CC4A2320DD
:104DD00003211023FEF77BFCFFE7FFE7FFE7054811
:104DE0000078002803D0FFE7FFF7D0FAFFE710B004
:104DF00070BDC046A00120209C0120202804202056
:104E000051B8000038B80000A8B80000D001202038
:104E100070B59AB013460C46054619AE307018A806
:104E2000017017A90A700078042866D1FFE7AC4822
:104E300000210170AB480170AB4846220260AB4ACA
:104E4000232313600468156816902046159129469F
:104E500014921393FFF7E0FAEB4815990170084696
:104E6000FEF7A0F815980090A14A10211398159B01
:104E700012911946129BFEF72AFC159800909D4A44
:104E8000032113981191129BFEF721FC15980090B5
:104E9000994A0221062308240846109119460F93C7
:104EA00023460E94FEF713FC15980090934A0721B1
:104EB00010980D910E9BFEF70AFC16980268159942
:104EC00001910C230093322420460F99119D0C93DD
:104ED0002B460B94FEF7E6FA149802681599019197
:104EE0000C9B00930B980D99119BFEF7DBFAC948B8
:104EF0001599159AFBF7ACFEFFE717A80078002874
:104F000000D1E3E017A8007801280A9008D0FFE755
:104F10000A98022840D0FFE70A98052878D0D4E004
:104F200070480078002818D1FFE76F480168491CD5
:104F300001600068642804DBFFE76B4864210160BE
:104F4000FFE769480268002001900C2000903220A1
:104F500006210323FEF7A6FA1DE062480078012827
:104F600018D1FFE761480168491C016000686428A6
:104F700004DBFFE75D4864210160FFE75B480268EE
:104F8000002001900C200090322007210323FEF71F
:104F900089FAFFE7FFE798E052480078002818D127
:104FA000FFE751480168491E01600068002804DCE1
:104FB000FFE74D4800210160FFE74B4802680020F1
:104FC00001900C200090322006210323FEF76AFA9C
:104FD0001DE044480078012818D1FFE743480168E4
:104FE000491E01600068002804DCFFE73F480021FB
:104FF0000160FFE73D480268002001900C2000900E
:10500000322007210323FEF74DFAFFE7FFE75CE0BC
:1050100034480178491C01700078022854DBFFE70E
:105020002F4801780122511A01700078002841D0E0
:10503000FFE700200090BC4A23210323102409909D
:10504000084608911946079323460694FEF73FFB4E
:105050002548006825490968FFF7DEF92120800509
:10506000012105900846059A04911146FDF764FC5C
:105070006420039000F004FB09980599FDF75CFC9F
:10508000039800F0FDFA04980599FDF755FC039884
:1050900000F0F6FA09980599FDF74EFC039800F028
:1050A000EFFA09980090184A08980799069BFEF7AE
:1050B0000EFB08E000200090114A2320032110235A
:1050C000FEF705FBFFE7FFE7FFE7FFE7044800788F
:1050D000002803D0FFE7FFF7B3F9FFE71AB070BD70
:1050E000AC012020A1012020A4012020A801202023
:1050F0005EB8000038B8000093B800009BB800000C
:105100003FB800002FB8000028B8000070B58CB080
:1051100013460C4605460BAE30700AA8017009A96B
:105120000A700078052823D1FFE77A480021017032
:105130003648017008460891FDF734FF0898009042
:10514000334A232110230846089C079121460693E1
:10515000FEF7BDFA08980090714A03210798069B54
:10516000FEF7B5FA6F480899089AFBF771FDFFE75B
:1051700009A8007805283CD1FFE7244801780122DE
:10518000511A01700078002832D0FFE7002000900B
:10519000654A232103231024059008461946234617
:1051A000FEF795FAFFF77AFA212080050121049095
:1051B0000846049A03911146FDF7BEFB6420029055
:1051C00000F05EFA05980499FDF7B6FB029800F02E
:1051D00057FA03980499FDF7AFFB029800F050FAD4
:1051E00005980499FDF7A8FB029800F049FAFFE73B
:1051F000FFE706480078002804D0FFE70020FFF70B
:1052000055FAFFE70CB070BD28042020AD01202026
:105210006BB80000D001202070B58CB013460C464E
:1052200005460BAE30700AA8017009A90A70007813
:10523000062823D1FFE73748002101703648017066
:1052400008460891FDF7AEFE08980090334A2321E6
:1052500010230846089C079121460693FEF737FA6B
:10526000089800902E4A03210798069BFEF72FFA14
:105270002C480899089AFBF7EBFCFFE709A800788F
:1052800005283CD1FFE7244801780122511A01701A
:105290000078002832D0FFE700200090224A232126
:1052A000032310240590084619462346FEF70FFAFB
:1052B000FFF74EFB21208005012104900846049A47
:1052C00003911146FDF738FB6420029000F0D8F9F5
:1052D00005980499FDF730FB029800F0D1F9039886
:1052E0000499FDF729FB029800F0CAF90598049982
:1052F000FDF722FB029800F0C3F9FFE7FFE706483D
:105300000078002803D0FFE7FFF72AFBFFE70CB087
:1053100070BDC04628042020AE01202078B80000CF
:10532000B9B80000D00120202FB8000080B51E4879
:10533000FCF724FD0B2803D1FFE700F00FF800E095
:10534000FFE780BD80B52F48FCF718FD0B2803D17F
:10535000FFE700F031F800E0FFE780BD80B582B0E4
:105360001148FCF74BFD11490A78531C0B70104B88
:10537000985408781422019111460093FBF76EFAB5
:10538000019A11701178009BC918491E09780A29E1
:1053900007D1FFE70548002101700648012101708F
:1053A000FFE702B080BDC04600801040AF01202062
:1053B00051042020F403202080B582B01148FCF76E
:1053C0001DFD11490A78531C0B70104B9854087836
:1053D0001422019111460093FBF740FA019A1170D3
:1053E0001178009BC918491E09780A2907D1FFE7DF
:1053F000054800210170064801210170FFE702B055
:1054000080BDC04600001040B0012020650420206F
:10541000F503202080B588B0014607AA10700798D0
:1054200004AA107001204004204A03901046039AF9
:1054300002911146FBF7ECFE06A800210170FFE780
:1054400006A8007807282FDCFFE7049805A9087054
:1054500008788022104008700878802806D1FFE77D
:105460000120C1031248FBF7F1FF05E00120C10351
:105470000F48FBF7CDFEFFE70498400004A9087031
:1054800001204004094901900846019A0091114603
:10549000FBF7DCFF00980199FBF7BAFEFFE70698DF
:1054A000401C06A90870CBE708B080BD00000A4088
:1054B00000200A4080B584B0014603AA1070029112
:1054C0000192FCF7B9FF7820FFF7A4FFFCF7EAFF91
:1054D0000020FFF79FFFFCF7E5FF01980078FFF73A
:1054E00099FFFCF7DFFFFCF7C5FF04B080BD80B576
:1054F00084B0014603AA107002910192FCF79CFF50
:105500007820FFF787FFFCF7CDFF4020FFF782FFF1
:10551000FCF7C8FF01980078FFF77CFFFCF7C2FF9B
:10552000FCF7A8FF04B080BD81B001466A46107048
:10553000107840B2002809D4FFE7684600781F21A0
:1055400008400121814002480160FFE701B0704737
:1055500080E200E081B001466A461070107840B2E7
:10556000002809D4FFE7684600781F210840012180
:10557000814020480160FFE701B0704781B00146DB
:105580006A461070107840B2002809D4FFE76846D8
:1055900000781F2108400121814016480160FFE783
:1055A00001B0704781B001466A461070107840B271
:1055B000002809D4FFE7684600781F210840012130
:1055C00081400C480160FFE701B0704781B001469F
:1055D0006A461070107840B2002809D4FFE7684688
:1055E00000781F2108400121814002480160FFE747
:1055F00001B0704700E100E070B582B0024601AB37
:1056000018700091187840B2002817D4FFE701A85D
:10561000017849B20322D2431140184BC95800788F
:1056200040B28407E40EFF25A540A943009DAD01CB
:10563000EDB2A54029431040C1501AE001A80178FD
:105640000F22114008390323DB4319400A4C095942
:10565000007840B28507ED0EFF26AE40B143009EB4
:10566000B601F6B2AE40314310400838184001513F
:10567000FFE702B070BDC0461CED00E000E400E0B2
:1056800080B582B0014601AA1080FFE701A8018819
:105690004A1E0280002904D0FFE70348FBF7FEFC06
:1056A000F4E702B080BDC0468038010080B582B00A
:1056B000014601AA1080FFE701A801884A1E028066
:1056C000002904D0FFE75020FBF7E8FCF4E702B024
:1056D00080BD000080B58AB0099008910020069036
:1056E00003A90090084601F0F3F900990791FFE73C
:1056F0000798022855DCFFE7099807998900405868
:10570000089A5158401AFAF72DFDFAF7FFFF8F213A
:10571000C905FAF7CEFD02900798800003A9085842
:105720000021FAF7CFFF00281ED1FFE70298079962
:10573000890003AA5158FAF7BCFD1C49FAF723FD6A
:10574000019001980121C90788431749496AFAF76E
:1057500081FF002807D1FFE70798012181400698C3
:1057600008430690FFE717E002980F49C969FAF766
:105770007FFF002808D1FFE702980B49096AFAF772
:1057800069FF002807D1FFE70798012181400698AB
:1057900008430690FFE7FFE7FFE70798401C0790E4
:1057A000A6E706980AB080BD00B90000000080BFDF
:1057B00010B586B013460C460590049103A80280EC
:1057C0000598052102930194FBF748F804494861C4
:1057D00004988861012088700398088006B010BD85
:1057E000B401202080B584B00F480078002814D080
:1057F000FFE73F200006C821042202900846029BD2
:10580000019119460092FFF7D3FF01980299009A7F
:1058100001F04AFF0120039002E000200390FFE71F
:10582000039804B080BDC0464C04202080B588B0E9
:1058300007900798C078C021084005A9087007980C
:10584000C0783F21084006A9087007984078C00733
:1058500000281DD0FFE706A80178C90804AA117026
:10586000007807210840401C03A90870D64800684A
:1058700000280CD0FFE7D448006804A9097803AADF
:105880001278029008461146029A9047FFE7FFE718
:10589000079840780007002810D5FFE7CA484068FD
:1058A00000280AD0FFE7C848406805A90978890997
:1058B0000190084601998847FFE7FFE7002008B0FC
:1058C00080BDC04680B584B0014603AA1070107830
:1058D00000280AD0FFE702A820210170282141708A
:1058E000302181703821C17002E006480290FFE744
:1058F0000548042102AA03F0F9FA019002F0FAFC2B
:1059000004B080BDA3A3A3A39E0A000010B596B067
:10591000014615AA108012A802230370CA234370FF
:10592000E32383700923C37068230424119018466D
:1059300010912146119B0F921A4603F0D7FAA3212A
:10594000119A11700F990B885B06002B08D5FFE7A1
:1059500012A8C0214170C8218170C221C17005E028
:1059600012A8A32141708170C170FFE715A80088BB
:10597000C005800F002808D0FFE712A8C4210171DC
:10598000CC214171C621817105E012A8A3210171CA
:1059900041718171FFE712A8A321C17101724172A7
:1059A00084490A220E90084611460E9A03F09EFA88
:1059B00015A909888907002904D0FFE712A820212A
:1059C000017003E012A8D8210170FFE77A48012195
:1059D00012AA03F08BFA15A909888906002904D5B3
:1059E000FFE7012000F0F2F803E0002000F0EEF8FD
:1059F000FFE715A80088C005800F002820D0FFE72A
:105A000015A80088C00500280AD5FFE712A8B22112
:105A100001708B214170B62181709B21C17009E01A
:105A200012A8B021017080214170B42181709021B1
:105A3000C170FFE76148042112AA03F057FAFFE79B
:105A400015A80088C00700283DD0FFE712A8F8215C
:105A500001708B21090101220D90084611460D9B12
:105A60000C921A4603F042FA0721FA220B900846DC
:105A70000A91114600F094FD0A990990084600F039
:105A800037FD0C990890084600F065FD64210790E9
:105A9000084600F08BFE7D2189000690084600F044
:105AA000A1FE4749C82205900846114600F0C6FCF1
:105AB00028210490084600F0E7FC0A2103900846DC
:105AC00000F0FCFC0CE012A8D82101708B21090128
:105AD0000122029008461146029A03F007FAFFE7F6
